{
  "contractName": "BlogBase",
  "abi": [
    {
      "constant": false,
      "inputs": [
        {
          "name": "owner",
          "type": "address"
        },
        {
          "name": "_content",
          "type": "string"
        }
      ],
      "name": "_createBlog",
      "outputs": [],
      "payable": false,
      "stateMutability": "nonpayable",
      "type": "function"
    },
    {
      "constant": true,
      "inputs": [
        {
          "name": "",
          "type": "address"
        },
        {
          "name": "",
          "type": "uint256"
        }
      ],
      "name": "ownerToBlogIndex",
      "outputs": [
        {
          "name": "",
          "type": "uint256"
        }
      ],
      "payable": false,
      "stateMutability": "view",
      "type": "function"
    },
    {
      "constant": true,
      "inputs": [],
      "name": "getBlogsLength",
      "outputs": [
        {
          "name": "len",
          "type": "uint256"
        }
      ],
      "payable": false,
      "stateMutability": "view",
      "type": "function"
    },
    {
      "constant": true,
      "inputs": [
        {
          "name": "",
          "type": "uint256"
        }
      ],
      "name": "blogs",
      "outputs": [
        {
          "name": "createTime",
          "type": "uint64"
        },
        {
          "name": "content",
          "type": "string"
        }
      ],
      "payable": false,
      "stateMutability": "view",
      "type": "function"
    }
  ],
  "bytecode": "0x6060604052341561000f57600080fd5b6105d18061001e6000396000f300606060405260043610610062576000357c0100000000000000000000000000000000000000000000000000000000900463ffffffff1680630badd472146100675780635a9f8f53146100e35780637ef1299a1461013957806380f052d814610162575b600080fd5b341561007257600080fd5b6100e1600480803573ffffffffffffffffffffffffffffffffffffffff1690602001909190803590602001908201803590602001908080601f01602080910402602001604051908101604052809392919081815260200183838082843782019150505050505091905050610236565b005b34156100ee57600080fd5b610123600480803573ffffffffffffffffffffffffffffffffffffffff1690602001909190803590602001909190505061034f565b6040518082815260200191505060405180910390f35b341561014457600080fd5b61014c610380565b6040518082815260200191505060405180910390f35b341561016d57600080fd5b610183600480803590602001909190505061038c565b604051808367ffffffffffffffff1667ffffffffffffffff168152602001806020018281038252838181546001816001161561010002031660029004815260200191508054600181600116156101000203166002900480156102265780601f106101fb57610100808354040283529160200191610226565b820191906000526020600020905b81548152906001019060200180831161020957829003601f168201915b5050935050505060405180910390f35b61023e6103d2565b60008060408051908101604052804267ffffffffffffffff16815260200185815250925060016000805480600101828161027891906103fc565b9160005260206000209060020201600086909190915060008201518160000160006101000a81548167ffffffffffffffff021916908367ffffffffffffffff16021790555060208201518160010190805190602001906102d992919061042e565b505050039150600160008673ffffffffffffffffffffffffffffffffffffffff1673ffffffffffffffffffffffffffffffffffffffff168152602001908152602001600020905080805480600101828161033391906104ae565b9160005260206000209001600084909190915055505050505050565b60016020528160005260406000208181548110151561036a57fe5b9060005260206000209001600091509150505481565b60008080549050905090565b60008181548110151561039b57fe5b90600052602060002090600202016000915090508060000160009054906101000a900467ffffffffffffffff169080600101905082565b6040805190810160405280600067ffffffffffffffff1681526020016103f66104da565b81525090565b8154818355818115116104295760020281600202836000526020600020918201910161042891906104ee565b5b505050565b828054600181600116156101000203166002900490600052602060002090601f016020900481019282601f1061046f57805160ff191683800117855561049d565b8280016001018555821561049d579182015b8281111561049c578251825591602001919060010190610481565b5b5090506104aa9190610538565b5090565b8154818355818115116104d5578183600052602060002091820191016104d49190610538565b5b505050565b602060405190810160405280600081525090565b61053591905b8082111561053157600080820160006101000a81549067ffffffffffffffff0219169055600182016000610528919061055d565b506002016104f4565b5090565b90565b61055a91905b8082111561055657600081600090555060010161053e565b5090565b90565b50805460018160011615610100020316600290046000825580601f1061058357506105a2565b601f0160209004906000526020600020908101906105a19190610538565b5b505600a165627a7a723058208f2acf63459c192355563542bbdd03d23a46d19c36a805d5bddafcade8f071ca0029",
  "source": "pragma solidity ^0.4.18;\n\n\ncontract BlogBase {\n\n\n    struct Blog{\n\n        uint64 createTime;\n\n        string content;\n    }\n\n    Blog[]  public blogs;\n\n    mapping(address => uint256[]) public ownerToBlogIndex;\n\n    /// 创建博客\n\n    function _createBlog(address owner,string _content)\n    public\n    {\n        Blog memory _blog = Blog({\n            createTime: uint64(now),\n            content:_content\n            });\n        uint newBlogIndex = blogs.push(_blog) - 1;\n        uint[] storage index = ownerToBlogIndex[owner];\n        index.push(newBlogIndex);\n    }\n\n\n    function getBlogsLength()\n    public view returns(uint256 len)\n    {\n       len = blogs.length;\n    }\n\n\n}",
  "sourcePath": "/Users/lijiahui/git_project/blog/contracts/BlogBase.sol",
  "compiler": {
    "name": "solc",
    "version": "0.4.18+commit.9cf6e910.Emscripten.clang"
  },
  "schemaVersion": "1.0.1",
  "updatedAt": "2018-02-06T02:52:47.776Z"
}