{
  "contractName": "BlogFacade",
  "abi": [
    {
      "constant": true,
      "inputs": [],
      "name": "name",
      "outputs": [
        {
          "name": "",
          "type": "string"
        }
      ],
      "payable": false,
      "stateMutability": "view",
      "type": "function"
    },
    {
      "constant": false,
      "inputs": [
        {
          "name": "owner",
          "type": "address"
        },
        {
          "name": "data",
          "type": "string"
        }
      ],
      "name": "_createBlog",
      "outputs": [],
      "payable": false,
      "stateMutability": "nonpayable",
      "type": "function"
    },
    {
      "constant": true,
      "inputs": [],
      "name": "totalSupply",
      "outputs": [
        {
          "name": "",
          "type": "uint256"
        }
      ],
      "payable": false,
      "stateMutability": "view",
      "type": "function"
    },
    {
      "constant": false,
      "inputs": [
        {
          "name": "_from",
          "type": "address"
        },
        {
          "name": "_to",
          "type": "address"
        },
        {
          "name": "_value",
          "type": "uint256"
        }
      ],
      "name": "transferFrom",
      "outputs": [
        {
          "name": "",
          "type": "bool"
        }
      ],
      "payable": false,
      "stateMutability": "nonpayable",
      "type": "function"
    },
    {
      "constant": true,
      "inputs": [
        {
          "name": "_owner",
          "type": "address"
        }
      ],
      "name": "balanceOf",
      "outputs": [
        {
          "name": "balance",
          "type": "uint256"
        }
      ],
      "payable": false,
      "stateMutability": "view",
      "type": "function"
    },
    {
      "constant": false,
      "inputs": [
        {
          "name": "_from",
          "type": "address"
        },
        {
          "name": "_to",
          "type": "address"
        },
        {
          "name": "_value",
          "type": "uint64"
        }
      ],
      "name": "_playReward",
      "outputs": [
        {
          "name": "",
          "type": "bool"
        }
      ],
      "payable": false,
      "stateMutability": "nonpayable",
      "type": "function"
    },
    {
      "constant": true,
      "inputs": [
        {
          "name": "owner",
          "type": "address"
        }
      ],
      "name": "_getBlog",
      "outputs": [
        {
          "name": "content",
          "type": "string"
        }
      ],
      "payable": false,
      "stateMutability": "view",
      "type": "function"
    },
    {
      "constant": true,
      "inputs": [],
      "name": "symbol",
      "outputs": [
        {
          "name": "",
          "type": "string"
        }
      ],
      "payable": false,
      "stateMutability": "view",
      "type": "function"
    },
    {
      "constant": false,
      "inputs": [
        {
          "name": "_to",
          "type": "address"
        },
        {
          "name": "_value",
          "type": "uint256"
        }
      ],
      "name": "transfer",
      "outputs": [
        {
          "name": "",
          "type": "bool"
        }
      ],
      "payable": false,
      "stateMutability": "nonpayable",
      "type": "function"
    },
    {
      "constant": true,
      "inputs": [
        {
          "name": "",
          "type": "address"
        }
      ],
      "name": "ownerToBlogHash",
      "outputs": [
        {
          "name": "",
          "type": "string"
        }
      ],
      "payable": false,
      "stateMutability": "view",
      "type": "function"
    },
    {
      "constant": false,
      "inputs": [
        {
          "name": "_owner",
          "type": "address"
        },
        {
          "name": "_content",
          "type": "string"
        },
        {
          "name": "_value",
          "type": "uint256"
        }
      ],
      "name": "_publish",
      "outputs": [
        {
          "name": "",
          "type": "bool"
        }
      ],
      "payable": false,
      "stateMutability": "nonpayable",
      "type": "function"
    },
    {
      "anonymous": false,
      "inputs": [
        {
          "indexed": true,
          "name": "from",
          "type": "address"
        },
        {
          "indexed": true,
          "name": "to",
          "type": "address"
        },
        {
          "indexed": false,
          "name": "value",
          "type": "uint256"
        }
      ],
      "name": "Transfer",
      "type": "event"
    }
  ],
  "bytecode": "0x60606040526040805190810160405280600881526020017f426c6f67436f696e0000000000000000000000000000000000000000000000008152506003908051906020019061004f9291906100f6565b506040805190810160405280600381526020017f424c4300000000000000000000000000000000000000000000000000000000008152506004908051906020019061009b9291906100f6565b50612710600555600554600281905550600554600160003373ffffffffffffffffffffffffffffffffffffffff1673ffffffffffffffffffffffffffffffffffffffff1681526020019081526020016000208190555061019b565b828054600181600116156101000203166002900490600052602060002090601f016020900481019282601f1061013757805160ff1916838001178555610165565b82800160010185558215610165579182015b82811115610164578251825591602001919060010190610149565b5b5090506101729190610176565b5090565b61019891905b8082111561019457600081600090555060010161017c565b5090565b90565b610df5806101aa6000396000f3006060604052600436106100af576000357c0100000000000000000000000000000000000000000000000000000000900463ffffffff16806306fdde03146100b45780630badd4721461014257806318160ddd146101be57806323b872dd146101e757806370a082311461026057806389b8d728146102ad5780638a0592ee1461033057806395d89b41146103e2578063a9059cbb14610470578063c75fb446146104ca578063cfe001211461057c575b600080fd5b34156100bf57600080fd5b6100c7610619565b6040518080602001828103825283818151815260200191508051906020019080838360005b838110156101075780820151818401526020810190506100ec565b50505050905090810190601f1680156101345780820380516001836020036101000a031916815260200191505b509250505060405180910390f35b341561014d57600080fd5b6101bc600480803573ffffffffffffffffffffffffffffffffffffffff1690602001909190803590602001908201803590602001908080601f016020809104026020016040519081016040528093929190818152602001838380828437820191505050505050919050506106b7565b005b34156101c957600080fd5b6101d161070e565b6040518082815260200191505060405180910390f35b34156101f257600080fd5b610246600480803573ffffffffffffffffffffffffffffffffffffffff1690602001909190803573ffffffffffffffffffffffffffffffffffffffff16906020019091908035906020019091905050610718565b604051808215151515815260200191505060405180910390f35b341561026b57600080fd5b610297600480803573ffffffffffffffffffffffffffffffffffffffff169060200190919050506108ad565b6040518082815260200191505060405180910390f35b34156102b857600080fd5b610316600480803573ffffffffffffffffffffffffffffffffffffffff1690602001909190803573ffffffffffffffffffffffffffffffffffffffff1690602001909190803567ffffffffffffffff169060200190919050506108f6565b604051808215151515815260200191505060405180910390f35b341561033b57600080fd5b610367600480803573ffffffffffffffffffffffffffffffffffffffff16906020019091905050610919565b6040518080602001828103825283818151815260200191508051906020019080838360005b838110156103a757808201518184015260208101905061038c565b50505050905090810190601f1680156103d45780820380516001836020036101000a031916815260200191505b509250505060405180910390f35b34156103ed57600080fd5b6103f5610a0b565b6040518080602001828103825283818151815260200191508051906020019080838360005b8381101561043557808201518184015260208101905061041a565b50505050905090810190601f1680156104625780820380516001836020036101000a031916815260200191505b509250505060405180910390f35b341561047b57600080fd5b6104b0600480803573ffffffffffffffffffffffffffffffffffffffff16906020019091908035906020019091905050610aa9565b604051808215151515815260200191505060405180910390f35b34156104d557600080fd5b610501600480803573ffffffffffffffffffffffffffffffffffffffff16906020019091905050610c3d565b6040518080602001828103825283818151815260200191508051906020019080838360005b83811015610541578082015181840152602081019050610526565b50505050905090810190601f16801561056e5780820380516001836020036101000a031916815260200191505b509250505060405180910390f35b341561058757600080fd5b6105ff600480803573ffffffffffffffffffffffffffffffffffffffff1690602001909190803590602001908201803590602001908080601f01602080910402602001604051908101604052809392919081815260200183838082843782019150505050505091908035906020019091905050610ced565b604051808215151515815260200191505060405180910390f35b60038054600181600116156101000203166002900480601f0160208091040260200160405190810160405280929190818152602001828054600181600116156101000203166002900480156106af5780601f10610684576101008083540402835291602001916106af565b820191906000526020600020905b81548152906001019060200180831161069257829003601f168201915b505050505081565b806000808473ffffffffffffffffffffffffffffffffffffffff1673ffffffffffffffffffffffffffffffffffffffff1681526020019081526020016000209080519060200190610709929190610d10565b505050565b6000600254905090565b60008073ffffffffffffffffffffffffffffffffffffffff168373ffffffffffffffffffffffffffffffffffffffff161415151561075557600080fd5b600160008573ffffffffffffffffffffffffffffffffffffffff1673ffffffffffffffffffffffffffffffffffffffff1681526020019081526020016000205482111515156107a357600080fd5b81600160008673ffffffffffffffffffffffffffffffffffffffff1673ffffffffffffffffffffffffffffffffffffffff1681526020019081526020016000206000828254039250508190555081600160008573ffffffffffffffffffffffffffffffffffffffff1673ffffffffffffffffffffffffffffffffffffffff168152602001908152602001600020600082825401925050819055508273ffffffffffffffffffffffffffffffffffffffff168473ffffffffffffffffffffffffffffffffffffffff167fddf252ad1be2c89b69c2b068fc378daa952ba7f163c4a11628f55a4df523b3ef846040518082815260200191505060405180910390a3600190509392505050565b6000600160008373ffffffffffffffffffffffffffffffffffffffff1673ffffffffffffffffffffffffffffffffffffffff168152602001908152602001600020549050919050565b600061090d84848467ffffffffffffffff16610718565b50600190509392505050565b610921610d90565b610929610d90565b6000808473ffffffffffffffffffffffffffffffffffffffff1673ffffffffffffffffffffffffffffffffffffffff1681526020019081526020016000208054600181600116156101000203166002900480601f0160208091040260200160405190810160405280929190818152602001828054600181600116156101000203166002900480156109fb5780601f106109d0576101008083540402835291602001916109fb565b820191906000526020600020905b8154815290600101906020018083116109de57829003601f168201915b5050505050905080915050919050565b60048054600181600116156101000203166002900480601f016020809104026020016040519081016040528092919081815260200182805460018160011615610100020316600290048015610aa15780601f10610a7657610100808354040283529160200191610aa1565b820191906000526020600020905b815481529060010190602001808311610a8457829003601f168201915b505050505081565b60008073ffffffffffffffffffffffffffffffffffffffff168373ffffffffffffffffffffffffffffffffffffffff1614151515610ae657600080fd5b600160003373ffffffffffffffffffffffffffffffffffffffff1673ffffffffffffffffffffffffffffffffffffffff168152602001908152602001600020548211151515610b3457600080fd5b81600160003373ffffffffffffffffffffffffffffffffffffffff1673ffffffffffffffffffffffffffffffffffffffff1681526020019081526020016000206000828254039250508190555081600160008573ffffffffffffffffffffffffffffffffffffffff1673ffffffffffffffffffffffffffffffffffffffff168152602001908152602001600020600082825401925050819055508273ffffffffffffffffffffffffffffffffffffffff163373ffffffffffffffffffffffffffffffffffffffff167fddf252ad1be2c89b69c2b068fc378daa952ba7f163c4a11628f55a4df523b3ef846040518082815260200191505060405180910390a36001905092915050565b60006020528060005260406000206000915090508054600181600116156101000203166002900480601f016020809104026020016040519081016040528092919081815260200182805460018160011615610100020316600290048015610ce55780601f10610cba57610100808354040283529160200191610ce5565b820191906000526020600020905b815481529060010190602001808311610cc857829003601f168201915b505050505081565b6000610cf984846106b7565b610d04338584610718565b50600190509392505050565b828054600181600116156101000203166002900490600052602060002090601f016020900481019282601f10610d5157805160ff1916838001178555610d7f565b82800160010185558215610d7f579182015b82811115610d7e578251825591602001919060010190610d63565b5b509050610d8c9190610da4565b5090565b602060405190810160405280600081525090565b610dc691905b80821115610dc2576000816000905550600101610daa565b5090565b905600a165627a7a723058203ba5aadd5c3fa511185df161cc06596d4c7cc5ad1d66662d2650bf8170280d4f0029",
  "source": "pragma solidity ^0.4.18;\n\nimport \"./BlogBase.sol\";\nimport \"./BlogCoin.sol\";\n\ncontract BlogFacade is BlogBase,BlogCoin{\n\n\n    //发布微博\n    function _publish(address _owner,\n        string _content,uint _value)\n    public returns (bool)\n    {\n         _createBlog(_owner ,_content);\n         transferFrom(msg.sender,_owner, _value);\n        return true;\n    }\n\n    //打赏\n    function _playReward(address _from,\n            address _to, uint64 _value)\n    public returns (bool){\n        transferFrom(_from,_to,_value);\n        return true;\n    }\n\n    //获取博客\n\n    function _getBlog(address owner)\n    public view returns(string content){\n\n        string memory data = ownerToBlogHash[owner];\n        content = data;\n    }\n\n}",
  "sourcePath": "/Users/lijiahui/git_project/blog/contracts/BlogFacade.sol",
  "compiler": {
    "name": "solc",
    "version": "0.4.18+commit.9cf6e910.Emscripten.clang"
  },
  "schemaVersion": "1.0.1",
  "updatedAt": "2018-02-27T09:52:30.598Z"
}