{
  "contractName": "BlogBase",
  "abi": [
    {
      "constant": false,
      "inputs": [
        {
          "name": "owner",
          "type": "address"
        },
        {
          "name": "data",
          "type": "string"
        }
      ],
      "name": "_createBlog",
      "outputs": [],
      "payable": false,
      "stateMutability": "nonpayable",
      "type": "function"
    },
    {
      "constant": true,
      "inputs": [
        {
          "name": "",
          "type": "address"
        }
      ],
      "name": "ownerToBlogHash",
      "outputs": [
        {
          "name": "",
          "type": "string"
        }
      ],
      "payable": false,
      "stateMutability": "view",
      "type": "function"
    }
  ],
  "bytecode": "0x6060604052341561000f57600080fd5b6103578061001e6000396000f30060606040526004361061004c576000357c0100000000000000000000000000000000000000000000000000000000900463ffffffff1680630badd47214610051578063c75fb446146100cd575b600080fd5b341561005c57600080fd5b6100cb600480803573ffffffffffffffffffffffffffffffffffffffff1690602001909190803590602001908201803590602001908080601f0160208091040260200160405190810160405280939291908181526020018383808284378201915050505050509190505061017f565b005b34156100d857600080fd5b610104600480803573ffffffffffffffffffffffffffffffffffffffff169060200190919050506101d6565b6040518080602001828103825283818151815260200191508051906020019080838360005b83811015610144578082015181840152602081019050610129565b50505050905090810190601f1680156101715780820380516001836020036101000a031916815260200191505b509250505060405180910390f35b806000808473ffffffffffffffffffffffffffffffffffffffff1673ffffffffffffffffffffffffffffffffffffffff16815260200190815260200160002090805190602001906101d1929190610286565b505050565b60006020528060005260406000206000915090508054600181600116156101000203166002900480601f01602080910402602001604051908101604052809291908181526020018280546001816001161561010002031660029004801561027e5780601f106102535761010080835404028352916020019161027e565b820191906000526020600020905b81548152906001019060200180831161026157829003601f168201915b505050505081565b828054600181600116156101000203166002900490600052602060002090601f016020900481019282601f106102c757805160ff19168380011785556102f5565b828001600101855582156102f5579182015b828111156102f45782518255916020019190600101906102d9565b5b5090506103029190610306565b5090565b61032891905b8082111561032457600081600090555060010161030c565b5090565b905600a165627a7a723058204498eafa8041b8ddb92186f0b13c7009a3e8a83f75b570f992df2182925234b40029",
  "source": "pragma solidity ^0.4.18;\n\n\ncontract BlogBase {\n\n\n    mapping(address => string) public ownerToBlogHash;\n\n    // 创建博客\n\n    function _createBlog(address owner,string data)\n    public\n\n    {\n        ownerToBlogHash[owner] = data;\n    }\n\n}",
  "sourcePath": "/Users/lijiahui/git_project/blog/contracts/BlogBase.sol",
  "compiler": {
    "name": "solc",
    "version": "0.4.18+commit.9cf6e910.Emscripten.clang"
  },
  "schemaVersion": "1.0.1",
  "updatedAt": "2018-02-12T08:29:57.458Z"
}