{
  "contractName": "BlogFacade",
  "abi": [
    {
      "constant": true,
      "inputs": [],
      "name": "name",
      "outputs": [
        {
          "name": "",
          "type": "string"
        }
      ],
      "payable": false,
      "stateMutability": "view",
      "type": "function"
    },
    {
      "constant": false,
      "inputs": [
        {
          "name": "owner",
          "type": "address"
        },
        {
          "name": "_content",
          "type": "string"
        }
      ],
      "name": "_createBlog",
      "outputs": [],
      "payable": false,
      "stateMutability": "nonpayable",
      "type": "function"
    },
    {
      "constant": true,
      "inputs": [],
      "name": "totalSupply",
      "outputs": [
        {
          "name": "",
          "type": "uint256"
        }
      ],
      "payable": false,
      "stateMutability": "view",
      "type": "function"
    },
    {
      "constant": false,
      "inputs": [
        {
          "name": "_from",
          "type": "address"
        },
        {
          "name": "_to",
          "type": "address"
        },
        {
          "name": "_value",
          "type": "uint256"
        }
      ],
      "name": "transferFrom",
      "outputs": [
        {
          "name": "",
          "type": "bool"
        }
      ],
      "payable": false,
      "stateMutability": "nonpayable",
      "type": "function"
    },
    {
      "constant": true,
      "inputs": [],
      "name": "_blogTotal",
      "outputs": [
        {
          "name": "total",
          "type": "uint256"
        }
      ],
      "payable": false,
      "stateMutability": "view",
      "type": "function"
    },
    {
      "constant": true,
      "inputs": [
        {
          "name": "index",
          "type": "uint256"
        }
      ],
      "name": "_getBlog",
      "outputs": [
        {
          "name": "content",
          "type": "string"
        },
        {
          "name": "createTime",
          "type": "uint64"
        }
      ],
      "payable": false,
      "stateMutability": "view",
      "type": "function"
    },
    {
      "constant": true,
      "inputs": [
        {
          "name": "",
          "type": "address"
        },
        {
          "name": "",
          "type": "uint256"
        }
      ],
      "name": "ownerToBlogIndex",
      "outputs": [
        {
          "name": "",
          "type": "uint256"
        }
      ],
      "payable": false,
      "stateMutability": "view",
      "type": "function"
    },
    {
      "constant": true,
      "inputs": [
        {
          "name": "_owner",
          "type": "address"
        }
      ],
      "name": "balanceOf",
      "outputs": [
        {
          "name": "balance",
          "type": "uint256"
        }
      ],
      "payable": false,
      "stateMutability": "view",
      "type": "function"
    },
    {
      "constant": true,
      "inputs": [],
      "name": "getBlogsLength",
      "outputs": [
        {
          "name": "len",
          "type": "uint256"
        }
      ],
      "payable": false,
      "stateMutability": "view",
      "type": "function"
    },
    {
      "constant": true,
      "inputs": [
        {
          "name": "",
          "type": "uint256"
        }
      ],
      "name": "blogs",
      "outputs": [
        {
          "name": "createTime",
          "type": "uint64"
        },
        {
          "name": "content",
          "type": "string"
        }
      ],
      "payable": false,
      "stateMutability": "view",
      "type": "function"
    },
    {
      "constant": false,
      "inputs": [
        {
          "name": "_from",
          "type": "address"
        },
        {
          "name": "_to",
          "type": "address"
        },
        {
          "name": "_value",
          "type": "uint64"
        }
      ],
      "name": "_playReward",
      "outputs": [
        {
          "name": "",
          "type": "bool"
        }
      ],
      "payable": false,
      "stateMutability": "nonpayable",
      "type": "function"
    },
    {
      "constant": true,
      "inputs": [
        {
          "name": "owner",
          "type": "address"
        }
      ],
      "name": "_getBlogIndex",
      "outputs": [
        {
          "name": "",
          "type": "uint256[]"
        }
      ],
      "payable": false,
      "stateMutability": "view",
      "type": "function"
    },
    {
      "constant": true,
      "inputs": [],
      "name": "symbol",
      "outputs": [
        {
          "name": "",
          "type": "string"
        }
      ],
      "payable": false,
      "stateMutability": "view",
      "type": "function"
    },
    {
      "constant": false,
      "inputs": [
        {
          "name": "_to",
          "type": "address"
        },
        {
          "name": "_value",
          "type": "uint256"
        }
      ],
      "name": "transfer",
      "outputs": [
        {
          "name": "",
          "type": "bool"
        }
      ],
      "payable": false,
      "stateMutability": "nonpayable",
      "type": "function"
    },
    {
      "constant": false,
      "inputs": [
        {
          "name": "_owner",
          "type": "address"
        },
        {
          "name": "_content",
          "type": "string"
        },
        {
          "name": "_value",
          "type": "uint256"
        }
      ],
      "name": "_publish",
      "outputs": [
        {
          "name": "",
          "type": "bool"
        }
      ],
      "payable": false,
      "stateMutability": "nonpayable",
      "type": "function"
    },
    {
      "anonymous": false,
      "inputs": [
        {
          "indexed": true,
          "name": "from",
          "type": "address"
        },
        {
          "indexed": true,
          "name": "to",
          "type": "address"
        },
        {
          "indexed": false,
          "name": "value",
          "type": "uint256"
        }
      ],
      "name": "Transfer",
      "type": "event"
    }
  ],
  "bytecode": "0x60606040526040805190810160405280600881526020017f426c6f67436f696e0000000000000000000000000000000000000000000000008152506004908051906020019062000051929190620000fb565b506040805190810160405280600381526020017f424c430000000000000000000000000000000000000000000000000000000000815250600590805190602001906200009f929190620000fb565b50612710600655600654600381905550600654600260003373ffffffffffffffffffffffffffffffffffffffff1673ffffffffffffffffffffffffffffffffffffffff16815260200190815260200160002081905550620001aa565b828054600181600116156101000203166002900490600052602060002090601f016020900481019282601f106200013e57805160ff19168380011785556200016f565b828001600101855582156200016f579182015b828111156200016e57825182559160200191906001019062000151565b5b5090506200017e919062000182565b5090565b620001a791905b80821115620001a357600081600090555060010162000189565b5090565b90565b61120280620001ba6000396000f3006060604052600436106100db576000357c0100000000000000000000000000000000000000000000000000000000900463ffffffff16806306fdde03146100e05780630badd4721461016e57806318160ddd146101ea57806323b872dd146102135780632e3704e11461028c57806358e658da146102b55780635a9f8f531461036c57806370a08231146103c25780637ef1299a1461040f57806380f052d81461043857806389b8d7281461050c5780638f25bd681461058f57806395d89b411461061d578063a9059cbb146106ab578063cfe0012114610705575b600080fd5b34156100eb57600080fd5b6100f36107a2565b6040518080602001828103825283818151815260200191508051906020019080838360005b83811015610133578082015181840152602081019050610118565b50505050905090810190601f1680156101605780820380516001836020036101000a031916815260200191505b509250505060405180910390f35b341561017957600080fd5b6101e8600480803573ffffffffffffffffffffffffffffffffffffffff1690602001909190803590602001908201803590602001908080601f01602080910402602001604051908101604052809392919081815260200183838082843782019150505050505091905050610840565b005b34156101f557600080fd5b6101fd610959565b6040518082815260200191505060405180910390f35b341561021e57600080fd5b610272600480803573ffffffffffffffffffffffffffffffffffffffff1690602001909190803573ffffffffffffffffffffffffffffffffffffffff16906020019091908035906020019091905050610963565b604051808215151515815260200191505060405180910390f35b341561029757600080fd5b61029f610af8565b6040518082815260200191505060405180910390f35b34156102c057600080fd5b6102d66004808035906020019091905050610b04565b60405180806020018367ffffffffffffffff1667ffffffffffffffff168152602001828103825284818151815260200191508051906020019080838360005b83811015610330578082015181840152602081019050610315565b50505050905090810190601f16801561035d5780820380516001836020036101000a031916815260200191505b50935050505060405180910390f35b341561037757600080fd5b6103ac600480803573ffffffffffffffffffffffffffffffffffffffff16906020019091908035906020019091905050610bee565b6040518082815260200191505060405180910390f35b34156103cd57600080fd5b6103f9600480803573ffffffffffffffffffffffffffffffffffffffff16906020019091905050610c1f565b6040518082815260200191505060405180910390f35b341561041a57600080fd5b610422610c68565b6040518082815260200191505060405180910390f35b341561044357600080fd5b6104596004808035906020019091905050610c74565b604051808367ffffffffffffffff1667ffffffffffffffff168152602001806020018281038252838181546001816001161561010002031660029004815260200191508054600181600116156101000203166002900480156104fc5780601f106104d1576101008083540402835291602001916104fc565b820191906000526020600020905b8154815290600101906020018083116104df57829003601f168201915b5050935050505060405180910390f35b341561051757600080fd5b610575600480803573ffffffffffffffffffffffffffffffffffffffff1690602001909190803573ffffffffffffffffffffffffffffffffffffffff1690602001909190803567ffffffffffffffff16906020019091905050610cba565b604051808215151515815260200191505060405180910390f35b341561059a57600080fd5b6105c6600480803573ffffffffffffffffffffffffffffffffffffffff16906020019091905050610cdd565b6040518080602001828103825283818151815260200191508051906020019060200280838360005b838110156106095780820151818401526020810190506105ee565b505050509050019250505060405180910390f35b341561062857600080fd5b610630610d86565b6040518080602001828103825283818151815260200191508051906020019080838360005b83811015610670578082015181840152602081019050610655565b50505050905090810190601f16801561069d5780820380516001836020036101000a031916815260200191505b509250505060405180910390f35b34156106b657600080fd5b6106eb600480803573ffffffffffffffffffffffffffffffffffffffff16906020019091908035906020019091905050610e24565b604051808215151515815260200191505060405180910390f35b341561071057600080fd5b610788600480803573ffffffffffffffffffffffffffffffffffffffff1690602001909190803590602001908201803590602001908080601f01602080910402602001604051908101604052809392919081815260200183838082843782019150505050505091908035906020019091905050610fb8565b604051808215151515815260200191505060405180910390f35b60048054600181600116156101000203166002900480601f0160208091040260200160405190810160405280929190818152602001828054600181600116156101000203166002900480156108385780601f1061080d57610100808354040283529160200191610838565b820191906000526020600020905b81548152906001019060200180831161081b57829003601f168201915b505050505081565b610848610fdb565b60008060408051908101604052804267ffffffffffffffff1681526020018581525092506001600080548060010182816108829190611005565b9160005260206000209060020201600086909190915060008201518160000160006101000a81548167ffffffffffffffff021916908367ffffffffffffffff16021790555060208201518160010190805190602001906108e3929190611037565b505050039150600160008673ffffffffffffffffffffffffffffffffffffffff1673ffffffffffffffffffffffffffffffffffffffff168152602001908152602001600020905080805480600101828161093d91906110b7565b9160005260206000209001600084909190915055505050505050565b6000600354905090565b60008073ffffffffffffffffffffffffffffffffffffffff168373ffffffffffffffffffffffffffffffffffffffff16141515156109a057600080fd5b600260008573ffffffffffffffffffffffffffffffffffffffff1673ffffffffffffffffffffffffffffffffffffffff1681526020019081526020016000205482111515156109ee57600080fd5b81600260008673ffffffffffffffffffffffffffffffffffffffff1673ffffffffffffffffffffffffffffffffffffffff1681526020019081526020016000206000828254039250508190555081600260008573ffffffffffffffffffffffffffffffffffffffff1673ffffffffffffffffffffffffffffffffffffffff168152602001908152602001600020600082825401925050819055508273ffffffffffffffffffffffffffffffffffffffff168473ffffffffffffffffffffffffffffffffffffffff167fddf252ad1be2c89b69c2b068fc378daa952ba7f163c4a11628f55a4df523b3ef846040518082815260200191505060405180910390a3600190509392505050565b60008080549050905090565b610b0c6110e3565b600080600084815481101515610b1e57fe5b90600052602060002090600202019050806001018054600181600116156101000203166002900480601f016020809104026020016040519081016040528092919081815260200182805460018160011615610100020316600290048015610bc65780601f10610b9b57610100808354040283529160200191610bc6565b820191906000526020600020905b815481529060010190602001808311610ba957829003601f168201915b505050505092508060000160009054906101000a900467ffffffffffffffff16915050915091565b600160205281600052604060002081815481101515610c0957fe5b9060005260206000209001600091509150505481565b6000600260008373ffffffffffffffffffffffffffffffffffffffff1673ffffffffffffffffffffffffffffffffffffffff168152602001908152602001600020549050919050565b60008080549050905090565b600081815481101515610c8357fe5b90600052602060002090600202016000915090508060000160009054906101000a900467ffffffffffffffff169080600101905082565b6000610cd184848467ffffffffffffffff16610963565b50600190509392505050565b610ce56110f7565b610ced6110f7565b600160008473ffffffffffffffffffffffffffffffffffffffff1673ffffffffffffffffffffffffffffffffffffffff168152602001908152602001600020805480602002602001604051908101604052809291908181526020018280548015610d7657602002820191906000526020600020905b815481526020019060010190808311610d62575b5050505050905080915050919050565b60058054600181600116156101000203166002900480601f016020809104026020016040519081016040528092919081815260200182805460018160011615610100020316600290048015610e1c5780601f10610df157610100808354040283529160200191610e1c565b820191906000526020600020905b815481529060010190602001808311610dff57829003601f168201915b505050505081565b60008073ffffffffffffffffffffffffffffffffffffffff168373ffffffffffffffffffffffffffffffffffffffff1614151515610e6157600080fd5b600260003373ffffffffffffffffffffffffffffffffffffffff1673ffffffffffffffffffffffffffffffffffffffff168152602001908152602001600020548211151515610eaf57600080fd5b81600260003373ffffffffffffffffffffffffffffffffffffffff1673ffffffffffffffffffffffffffffffffffffffff1681526020019081526020016000206000828254039250508190555081600260008573ffffffffffffffffffffffffffffffffffffffff1673ffffffffffffffffffffffffffffffffffffffff168152602001908152602001600020600082825401925050819055508273ffffffffffffffffffffffffffffffffffffffff163373ffffffffffffffffffffffffffffffffffffffff167fddf252ad1be2c89b69c2b068fc378daa952ba7f163c4a11628f55a4df523b3ef846040518082815260200191505060405180910390a36001905092915050565b6000610fc48484610840565b610fcf338584610963565b50600190509392505050565b6040805190810160405280600067ffffffffffffffff168152602001610fff61110b565b81525090565b81548183558181151161103257600202816002028360005260206000209182019101611031919061111f565b5b505050565b828054600181600116156101000203166002900490600052602060002090601f016020900481019282601f1061107857805160ff19168380011785556110a6565b828001600101855582156110a6579182015b828111156110a557825182559160200191906001019061108a565b5b5090506110b39190611169565b5090565b8154818355818115116110de578183600052602060002091820191016110dd9190611169565b5b505050565b602060405190810160405280600081525090565b602060405190810160405280600081525090565b602060405190810160405280600081525090565b61116691905b8082111561116257600080820160006101000a81549067ffffffffffffffff0219169055600182016000611159919061118e565b50600201611125565b5090565b90565b61118b91905b8082111561118757600081600090555060010161116f565b5090565b90565b50805460018160011615610100020316600290046000825580601f106111b457506111d3565b601f0160209004906000526020600020908101906111d29190611169565b5b505600a165627a7a723058207c98b6f3d6976e82b98697c700bfc8fa8ba0cf0af9745a255b5bd30e00b775200029",
  "source": "pragma solidity ^0.4.18;\n\nimport \"./BlogBase.sol\";\nimport \"./BlogCoin.sol\";\n\ncontract BlogFacade is BlogBase,BlogCoin{\n\n\n    //发布微博\n    function _publish(address _owner,\n        string _content,uint _value)\n    public returns (bool)\n    {\n         _createBlog(_owner ,_content);\n         transferFrom(msg.sender,_owner, _value);\n        return true;\n    }\n\n    //打赏\n    function _playReward(address _from,\n            address _to, uint64 _value)\n    public returns (bool){\n        transferFrom(_from,_to,_value);\n        return true;\n    }\n\n    //获取博客\n\n    function _getBlog(uint index)\n    public view returns(string content,uint64 createTime){\n\n        Blog storage blog = blogs[index];\n        content = blog.content;\n        createTime=blog.createTime;\n\n    }\n\n    function _getBlogIndex(address owner)\n    public view returns(uint256[]){\n        uint256[] memory blogIndexArr = ownerToBlogIndex[owner];\n        return blogIndexArr;\n    }\n\n    //博客总数\n    function _blogTotal()\n    public view returns(uint total){\n        total = blogs.length;\n    }\n\n}",
  "sourcePath": "/Users/lijiahui/git_project/blog/contracts/BlogFacade.sol",
  "compiler": {
    "name": "solc",
    "version": "0.4.18+commit.9cf6e910.Emscripten.clang"
  },
  "schemaVersion": "1.0.1",
  "updatedAt": "2018-02-07T09:42:54.470Z"
}